:020000040800F2
:1000000000500020AD0B0008C1090008C709000816
:10001000CD090008D3090008D90900080000000034
:10002000000000000000000000000000DF090008E0
:10003000EB09000800000000F7090008030A0008A7
:10004000F50B0008F50B0008F50B0008F50B000890
:10005000F50B0008F50B0008F50B0008F50B000880
:10006000F50B0008F50B0008F50B0008F50B000870
:10007000F50B0008F50B0008F50B0008110A000845
:10008000F50B0008F50B0008F50B0008F50B000850
:10009000F50B0008F50B0008F50B0008F50B000840
:1000A000F50B0008F50B0008F50B0008F50B000830
:1000B000F50B0008F50B0008F50B0008250A0008F1
:1000C000390A0008F50B0008F50B0008F50B0008CD
:1000D000F50B00084D0A0008F50B0008F50B0008A9
:1000E000F50B0008F50B0008F50B000800000000F8
:1000F0000000000000000000000000000000000000
:0C01000000000000000000005FF808F1A3
:10010C0010B5054C237833B9044B13B10448AFF345
:10011C0000800123237010BD70000020000000003F
:10012C00B069000808B5034B1BB103490348AFF392
:10013C00008008BD0000000074000020B0690008B9
:10014C0080B582B000AF7860391D4FF6FF73012285
:10015C00034804F096FB7B6818460837BD4680BD03
:10016C00F400002080B584B000AF78600123FB73ED
:10017C000D4B07221A700C4B07225A700A4B0722A0
:10018C009A704FF47A7303220749084801F064FC13
:10019C000346002B02D0064805F078FCFB7B184682
:1001AC001037BD4680BD00BF000500208C0000202C
:1001BC00C869000880B582B000AF78600B467B80C0
:1001CC007B681B680D4A934213D14FF0FF33142206
:1001DC000B490C4804F055FB14220949094804F05A
:1001EC00D3FB094B1B681A68074B1B6822F00402EF
:1001FC001A6000BF0837BD4680BD00BF0038014003
:10020C00E4040020F40000203C01002080B584B000
:10021C0002AF7860174B1B781946164B5B781A4661
:10022C00144B9B781846134BDB780093034612480B
:10023C0005F0A6FB114B01221A600E4B1B78013303
:10024C00DAB20C4B1A700B4B5B780133DAB2094BF8
:10025C005A70084B9B780133DAB2064B9A70054BF7
:10026C00DB780133DAB2034BDA7000BF0837BD46D6
:10027C0080BD00BFE0040020E0690008700400208D
:10028C00B0B586B004AF7860104B1B7818460F4B96
:10029C005B781C460D4B9B781D460C4BDB781A4645
:1002AC000A4B1B791946094B5B7902930191009219
:1002BC002B4622460146064805F062FB054B0122FF
:1002CC001A7000BF0837BD46B0BD00BFF80400204F
:1002DC00106A00087504002080B483B000AF786009
:1002EC000B46FB7013463B8000BF0C37BD4680BCF1
:1002FC007047000080B582B000AF7860044805F00C
:10030C00C5FB044B01221A6000BF0837BD4680BDF7
:10031C004C6A00087004002080B582B000AF786091
:10032C000F4805F0B3FB786801F067FF0346042B18
:10033C0004D00C4805F0AAFB00F0F6F906220A4995
:10034C000A4801F09FFC0346002B04D0084805F036
:10035C009DFB00F0E9F900BF0837BD4680BD00BF2A
:10036C00606A0008786A0008F80400208C000020FD
:10037C008C6A000880B500AF00F038FC00F06AF819
:10038C0000F07CF900F0F4F800F038F900F058F9BE
:10039C0000F0C0F800F008F94FF4FA7000F088FC97
:1003AC00642303222049214804F06BFA14222049CB
:1003BC001E4804F0E9FA1F4B1B681A681D4B1B689A
:1003CC0022F004021A6006221B491C4801F05AFC58
:1003DC000346002B04D01A4805F058FB00F0A4F992
:1003EC00184B1B78002B06D01749184805F056FB04
:1003FC00144B00221A70164B1B78002BF0D00E48B1
:10040C00FFF7B0FE124B00221A7006220A490B4865
:10041C0001F038FC0346002BE2D0094805F036FB0E
:10042C0000F082F9DCE700BFA46A0008F4000020A9
:10043C00E40400203C010020F80400208C00002083
:10044C008C6A00087404002078040020AC0400209E
:10045C007504002080B594B000AF07F12803282262
:10046C000021184605F084FA07F1140300221A60E3
:10047C005A609A60DA601A613B1D00221A605A6059
:10048C009A60DA600923BB624FF48033FB6200236D
:10049C003B630123BB6301233B6402237B644FF466
:1004AC008033BB644FF48013FB6407F128031846B8
:1004BC0003F012FB0346002B01D000F035F90F239B
:1004CC007B610223BB610023FB614FF480633B62C1
:1004DC0000237B6207F114030121184603F07EFD13
:1004EC000346002B01D000F01FF911237B604FF461
:1004FC000073BB604FF480033B613B1D184603F057
:10050C00FBFE0346002B01D000F00EF900BF503764
:10051C00BD4680BD80B500AF124B134A1A60114B1B
:10052C00124A5A600F4B00229A600E4B2422DA605A
:10053C000C4B4FF480421A610A4B00225A61094B52
:10054C0000229A61074B0022DA61064B00221A62E4
:10055C00044801F029F90346002B01D000F0E4F81F
:10056C0000BF80BD8C00002000540040A08601001C
:10057C0080B500AF0A4B0B4A1A60094B4FF0FF32A3
:10058C005A60074B4FF480729A60054804F020F8CB
:10059C000346002B01D000F0C7F800BF80BD00BFA0
:1005AC00E00000200028004080B500AF114B124A3B
:1005BC001A60104B4FF4E1325A600E4B00229A60D5
:1005CC000C4B0022DA600B4B00221A61094B0C22F7
:1005DC005A61084B00229A61064B0022DA610548E9
:1005EC0004F0FFF80346002B01D000F09DF800BF8B
:1005FC0080BD00BFF40000200038014080B500AF82
:10060C000D4B0E4A1A600C4B08225A600A4B022200
:10061C009A60094B00229A61074B0022DA61064B63
:10062C0000221A62044803F04BF90346002B01D058
:10063C0000F07AF800BF80BD80010020005C004013
:10064C0080B582B000AF0C4B5B690B4A43F00103E1
:10065C005361094B5B6903F001037B607B680022EB
:10066C0000210F2000F01FFC0F2000F038FC00BF11
:10067C000837BD4680BD00BF0010024080B588B071
:10068C0000AF07F1100300221A605A609A60DA601A
:10069C00234B9B69224A43F020039361204B9B69B7
:1006AC0003F02003FB60FB681D4B9B691C4A43F065
:1006BC00040393611A4B9B6903F00403BB60BB6892
:1006CC00174B9B69164A43F008039361144B9B69C3
:1006DC0003F008037B607B6800220221114801F0C3
:1006EC004BF801233B6100237B610023BB6107F1C5
:1006FC00100319460B4800F0BBFE02233B6101239B
:10070C007B610023BB610223FB6107F110031946D7
:10071C00044800F0ADFE00BF2037BD4680BD00BFD1
:10072C00001002400008014080B400AF72B600BF58
:10073C00FEE7000080B485B000AF154B9B69144AEE
:10074C0043F001039361124B9B6903F00103BB60FF
:10075C00BB680F4BDB690E4A43F08053D3610C4BE3
:10076C00DB6903F080537B607B680A4B5B68FB6042
:10077C00FB6823F0E063FB60FB6843F00073FB60F5
:10078C00044AFB68536000BF1437BD4680BC7047F9
:10079C00001002400000014080B588B000AF7860C6
:1007AC0007F1100300221A605A609A60DA607B68C5
:1007BC001B681D4A934233D11C4B9B691B4A43F067
:1007CC0008039361194B9B6903F00803FB60FB68FA
:1007DC00C0233B6112237B610323FB6107F11003F0
:1007EC001946134800F044FE104BDB690F4A43F4E2
:1007FC000013D3610D4BDB6903F40013BB60BB68C2
:10080C00002200211F2000F04EFB1F2000F067FB90
:10081C0000220021202000F046FB202000F05FFB8E
:10082C0000BF2037BD4680BD005400400010024080
:10083C00000C014080B584B000AF78607B681B6809
:10084C000B4A934210D103F03BF90A4BDB69094A7E
:10085C0043F00063D361074BDB6903F00063FB607B
:10086C00FB68054B01221A6000BF1037BD4680BDE6
:10087C0000280040001002403C04424280B588B081
:10088C0000AF786007F1100300221A605A609A607A
:10089C00DA607B681B68334A93425FD1324B9B69A9
:1008AC00314A43F4804393612F4B9B6903F480439B
:1008BC00FB60FB682C4B9B692B4A43F00403936150
:1008CC00294B9B6903F00403BB60BB684FF40073B6
:1008DC003B6102237B610323FB6107F11003194683
:1008EC00224800F0C5FD4FF480633B6100237B611F
:1008FC000023BB6107F1100319461C4800F0B8FD3A
:10090C001B4B1C4A1A601A4B00225A60184B0022CF
:10091C009A60174B8022DA60154B00221A61144B37
:10092C0000225A61124B00229A61114B0022DA61AB
:10093C000F4800F0EFFA0346002B01D0FFF7F4FE4E
:10094C007B680B4ADA630A4A7B68536200220021F7
:10095C00252000F0A8FA252000F0C1FA00BF2037AE
:10096C00BD4680BD00380140001002400008014027
:10097C003C0100205800024080B485B000AF786084
:10098C007B681B68094A93420BD1094BDB69084A07
:10099C0043F40003D361064BDB6903F40003FB60F3
:1009AC00FB6800BF1437BD4680BC7047005C00403C
:1009BC000010024080B400AFFEE780B400AFFEE749
:1009CC0080B400AFFEE780B400AFFEE780B400AFA8
:1009DC00FEE780B400AF00BFBD4680BC704780B45A
:1009EC0000AF00BFBD4680BC704780B400AF00BFF5
:1009FC00BD4680BC704780B500AF00F03DF900BF2C
:100A0C0080BD000080B500AF024800F0F1FB00BFD4
:100A1C0080BD00BF3C01002080B500AF024801F052
:100A2C009FF900BF80BD00BF8C00002080B500AFD7
:100A3C00024801F006FB00BF80BD00BF8C00002007
:100A4C0080B500AF024803F0FDFF00BF80BD00BFC2
:100A5C00F400002080B586B000AFF860B9607A6011
:100A6C0000237B610AE0AFF300800146BB685A1C8F
:100A7C00BA60CAB21A707B6901337B617A697B6890
:100A8C009A42F0DB7B6818461837BD4680BD80B5AE
:100A9C0086B000AFF860B9607A6000237B6109E032
:100AAC00BB685A1CBA601B781846FFF749FB7B6978
:100ABC0001337B617A697B689A42F1DB7B6818466B
:100ACC001837BD4680BD80B483B000AF78604FF05E
:100ADC00FF3318460C37BD4680BC704780B483B0DA
:100AEC0000AF786039603B684FF400525A600023C5
:100AFC0018460C37BD4680BC704780B483B000AF3D
:100B0C007860012318460C37BD4680BC704780B412
:100B1C0085B000AFF860B9607A60002318461437CE
:100B2C00BD4680BC7047000080B586B000AF7860D1
:100B3C00144A154BD31A7B617B693B61134B1B68C1
:100B4C00002B02D1114B124A1A60104B1A687B68A9
:100B5C0013443A699A4207D204F0E0FE03460C2291
:100B6C001A604FF0FF3309E0084B1B68FB60074B22
:100B7C001A687B681344054A1360FB6818461837DB
:100B8C00BD4680BD0050002000040000040500207C
:100B9C002005002080B400AF00BFBD4680BC70476C
:100BAC00FFF7F8FF0B480C490C4A002302E0D4581D
:100BBC00C4500433C4188C42F9D3094A094C00239D
:100BCC0001E013600432A242FBD304F0ADFEFFF748
:100BDC00D1FB704700000020700000208C6B0008D7
:100BEC00700000201C050020FEE7000080B500AF5F
:100BFC00084B1B68074A43F010031360032000F0F6
:100C0C0047F90F2000F008F8FFF794FD0023184671
:100C1C0080BD00BF0020024080B582B000AF78607C
:100C2C00124B1A68124B1B7819464FF47A73B3FBAC
:100C3C00F1F3B2FBF3F3184600F05FF90346002B17
:100C4C0001D001230EE07B680F2B0AD800227968B3
:100C5C004FF0FF3000F027F9064A7B681360002341
:100C6C0000E0012318460837BD4680BD0000002077
:100C7C00080000200400002080B400AF054B1B7856
:100C8C001A46054B1B681344034A136000BFBD464C
:100C9C0080BC7047080000200805002080B400AF1D
:100CAC00024B1B681846BD4680BC704708050020E7
:100CBC0080B584B000AF7860FFF7F0FFB8607B6858
:100CCC00FB60FB68B3F1FF3F05D00A4B1B781A465B
:100CDC00FB681344FB6000BFFFF7E0FF0246BB68F4
:100CEC00D31AFA689A42F7D800BF00BF1037BD4636
:100CFC0080BD00BF0800002080B485B000AF7860D4
:100D0C007B6803F00703FB600C4BDB68BB60BA68C5
:100D1C004FF6FF031340BB60FB681A02BB6813431A
:100D2C0043F0BF6343F40033BB60044ABB68D36039
:100D3C0000BF1437BD4680BC704700BF00ED00E01B
:100D4C0080B400AF044BDB681B0A03F007031846A2
:100D5C00BD4680BC704700BF00ED00E080B483B09E
:100D6C0000AF0346FB7197F90730002B0BDBFB79C7
:100D7C0003F01F02064997F907305B09012000FABE
:100D8C0002F241F8232000BF0C37BD4680BC7047EF
:100D9C0000E100E080B483B000AF03463960FB7122
:100DAC0097F90730002B0ADB3B68DAB20C4997F94C
:100DBC0007301201D2B20B4483F800230AE03B68DF
:100DCC00DAB20849FB7903F00F03043B1201D2B2EB
:100DDC000B441A7600BF0C37BD4680BC704700BF71
:100DEC0000E100E000ED00E080B489B000AFF860F5
:100DFC00B9607A60FB6803F00703FB61FB69C3F120
:100E0C000703042B28BF0423BB61FB690433062BA7
:100E1C0002D9FB69033B00E000237B614FF0FF32FA
:100E2C00BB6902FA03F3DA43BB681A407B699A4048
:100E3C004FF0FF317B6901FA03F3D9437B680B4018
:100E4C00134318462437BD4680BC704780B582B02A
:100E5C0000AF78607B68013BB3F1807F01D3012345
:100E6C000FE00A4A7B68013B53600F214FF0FF30C3
:100E7C00FFF790FF054B00229A60044B07221A6083
:100E8C00002318460837BD4680BD00BF10E000E0C7
:100E9C0080B582B000AF78607868FFF72DFF00BF97
:100EAC000837BD4680BD80B586B000AF0346B9603B
:100EBC007A60FB7300237B61FFF742FF78617A68ED
:100ECC00B9687869FFF790FF024697F90F30114621
:100EDC001846FFF75FFF00BF1837BD4680BD80B5D1
:100EEC0082B000AF0346FB7197F907301846FFF745
:100EFC0035FF00BF0837BD4680BD80B582B000AF5E
:100F0C0078607868FFF7A2FF034618460837BD469D
:100F1C0080BD000080B485B000AF78600023FB601A
:100F2C007B68002B01D1012343E07B681B681A46C8
:100F3C00224B1344224AA2FB03231B099A007B6811
:100F4C001A647B681F4ADA637B68022283F82120CB
:100F5C007B681B681B68FB60FB6823F47F5323F0E2
:100F6C003003FB607B685A687B689B681A437B681C
:100F7C00DB681A437B681B691A437B685B691A43FD
:100F8C007B689B691A437B68DB691343FA681343DC
:100F9C00FB607B681B68FA681A607B6800229A63A6
:100FAC007B68012283F821207B68002283F82020B3
:100FBC00002318461437BD4680BC7047F8FFFDBFB0
:100FCC00CDCCCCCC0000024080B586B000AFF86030
:100FDC00B9607A603B600023FB75FB6893F82030A6
:100FEC00012B01D102234BE0FB68012283F8202066
:100FFC00FB6893F82130DBB2012B3AD1FB6802225B
:10100C0083F82120FB6800229A63FB681B681A682E
:10101C00FB681B6822F001021A603B687A68B968A9
:10102C00F86800F0F8F9FB68DB6A002B08D0FB6865
:10103C001B681A68FB681B6842F00E021A600FE00E
:10104C00FB681B681A68FB681B6822F004021A60B4
:10105C00FB681B681A68FB681B6842F00A021A607E
:10106C00FB681B681A68FB681B6842F001021A6077
:10107C0005E0FB68002283F820200223FB75FB7D32
:10108C0018461837BD4680BD80B485B000AF786077
:10109C000023FB737B6893F82130DBB2022B08D062
:1010AC007B6804229A637B68002283F8202001234A
:1010BC0020E07B681B681A687B681B6822F00E02B4
:1010CC001A607B681B681A687B681B6822F0010237
:1010DC001A607B681A6C7B68DB6B012101FA02F2E7
:1010EC005A607B68012283F821207B68002283F8F8
:1010FC002020FB7B18461437BD4680BC704700008F
:10110C0080B584B000AF78600023FB737B6893F8E4
:10111C002130DBB2022B05D07B6804229A630123B9
:10112C00FB7351E07B681B681A687B681B6822F0B4
:10113C000E021A607B681B681A687B681B6822F0B9
:10114C0001021A607B681B68224A934229D07B6893
:10115C001B68214A934222D07B681B681F4A93422A
:10116C001AD07B681B681E4A934212D07B681B689E
:10117C001C4A93420AD07B681B681B4A934202D1DB
:10118C004FF480130EE04FF080730BE04FF480337C
:10119C0008E04FF4805305E04FF4807302E0102315
:1011AC0000E00123114A53607B68012283F821205F
:1011BC007B68002283F820207B685B6B002B03D0BC
:1011CC007B685B6B78689847FB7B18461037BD468D
:1011DC0080BD00BF080002401C00024030000240ED
:1011EC0044000240580002406C00024000000240E3
:1011FC0080B584B000AF78607B68DB6B1B68FB60EC
:10120C007B681B681B68BB607B681B6C04229A4064
:10121C00FB681340002B4FD0BB6803F00403002B7A
:10122C004AD07B681B681B6803F02003002B07D196
:10123C007B681B681A687B681B6822F004021A60C2
:10124C007B681B68664A934229D07B681B68654A99
:10125C00934222D07B681B68634A93421AD07B6806
:10126C001B68624A934212D07B681B68604A9342A7
:10127C000AD07B681B685F4A934202D14FF480030B
:10128C000EE04FF080630BE04FF4802308E04FF446
:10129C00804305E04FF4806302E0402300E0042328
:1012AC00554A53607B68DB6A002B00F094807B68A6
:1012BC00DB6A786898478EE07B681B6C02229A4048
:1012CC00FB681340002B56D0BB6803F00203002BC5
:1012DC0051D07B681B681B6803F02003002B0BD1DB
:1012EC007B681B681A687B681B6822F00A021A600C
:1012FC007B68012283F821207B681B68384A934263
:10130C0029D07B681B68374A934222D07B681B68C4
:10131C00354A93421AD07B681B68344A934212D0E8
:10132C007B681B68324A93420AD07B681B68314A3F
:10133C00934202D14FF400130EE04FF000730BE018
:10134C004FF4003308E04FF4005305E04FF4007302
:10135C0002E0202300E00223274A53607B6800222E
:10136C0083F820207B689B6A002B34D07B689B6AB7
:10137C00786898472FE07B681B6C08229A40FB68C2
:10138C001340002B28D0BB6803F00803002B23D09C
:10139C007B681B681A687B681B6822F00E021A6057
:1013AC007B681A6C7B68DB6B012101FA02F25A60D4
:1013BC007B6801229A637B68012283F821207B6879
:1013CC00002283F820207B681B6B002B04D07B68E9
:1013DC001B6B7868984700BF00BF1037BD4680BDB7
:1013EC00080002401C000240300002404400024051
:1013FC00580002406C0002400000024080B483B0F0
:10140C0000AF78607B6893F82130DBB218460C375C
:10141C00BD4680BC704780B485B000AFF860B96041
:10142C007A603B60FB681A6CFB68DB6B012101FA8C
:10143C0002F25A60FB681B683A685A60FB685B688A
:10144C00102B08D1FB681B687A689A60FB681B68D4
:10145C00BA68DA6007E0FB681B68BA689A60FB68D8
:10146C001B687A68DA6000BF1437BD4680BC7047D1
:10147C0080B48BB000AF7860396000237B620023AE
:10148C003B6269E101227B6A02FA03F3FB613B6870
:10149C001B68FA691340BB61BA69FB699A4240F058
:1014AC0058813B685B689A4A93425ED0984A934253
:1014BC0075D8984A934258D0964A93426FD8964A18
:1014CC00934252D0944A934269D8944A93424CD056
:1014DC00924A934263D8924A934246D0904A93429E
:1014EC005DD8122B2AD8122B59D801A252F823F00E
:1014FC00771500085115000863150008A51500089C
:10150C00AB150008AB150008AB150008AB150008AF
:10151C00AB150008AB150008AB150008AB1500089F
:10152C00AB150008AB150008AB150008AB1500088F
:10153C00AB150008591500086D150008794A93423F
:10154C0013D02CE03B68DB683B6229E03B68DB682E
:10155C0004333B6224E03B68DB6808333B621FE0EA
:10156C003B68DB680C333B621AE03B689B68002BE2
:10157C0002D104233B6213E03B689B68012B05D12D
:10158C0008233B627B68FA691A6109E008233B6215
:10159C007B68FA695A6103E000233B6200E000BFFC
:1015AC00BB69FF2B01D87B6801E07B6804337B614E
:1015BC00BB69FF2B02D87B6A9B0002E07B6A083B6D
:1015CC009B003B617B691A680F213B6901FA03F3AD
:1015DC00DB431A40396A3B6901FA03F31A437B690E
:1015EC001A603B685B6803F08053002B00F0B180FD
:1015FC004D4B9B694C4A43F0010393614A4B9B69E9
:10160C0003F00103BB60BB68484A7B6A9B0802334A
:10161C0052F82330FB607B6A03F003039B000F221C
:10162C0002FA03F3DB43FA681340FB607B68404A21
:10163C00934213D07B683F4A93420DD07B683E4A5D
:10164C00934207D07B683D4A934201D1032306E0C5
:10165C00042304E0022302E0012300E000237A6A61
:10166C0002F0030292009340FA681343FB602F4987
:10167C007B6A9B080233FA6841F823203B685B685D
:10168C0003F48013002B06D02D4B9A682C49BB69B0
:10169C0013438B6006E02A4B9A68BB69DB432849ED
:1016AC0013408B603B685B6803F40013002B06D07F
:1016BC00234BDA682249BB691343CB6006E0204B0D
:1016CC00DA68BB69DB431E491340CB603B685B683F
:1016DC0003F40033002B06D0194B5A681849BB6928
:1016EC0013434B6006E0164B5A68BB69DB43144945
:1016FC0013404B603B685B6803F48033002B21D0B4
:10170C000F4B1A680E49BB6913430B6021E000BFF5
:10171C0000003210000031100000221000002110D7
:10172C0000001210000011100010024000000140D7
:10173C0000080140000C0140001001400014014061
:10174C00000401400B4B1A68BB69DB430949134089
:10175C000B607B6A01337B623B681A687B6A22FAF6
:10176C0003F3002B7FF48EAE00BF00BF2C37BD46B9
:10177C0080BC70470004014080B483B000AF786037
:10178C000B467B8013467B707B78002B03D07A88CA
:10179C007B681A6103E07B881A047B681A6100BFBE
:1017AC000C37BD4680BC704780B584B000AF786004
:1017BC007B68002B01D101232BE17B6893F83D3032
:1017CC00DBB2002B06D17B68002283F83C207868C2
:1017DC00FEF7E2FF7B68242283F83D207B681B68C0
:1017EC001A687B681B6822F001021A607B681B6810
:1017FC001A687B681B6842F400421A607B681B689D
:10180C001A687B681B6822F400421A6002F02EFDF5
:10181C00F8607B685B68814A934207D8FB68804A12
:10182C00934294BF01230023DBB206E0FB687D4AA0
:10183C00934294BF01230023DBB2002B01D0012380
:10184C00E7E0FB68784AA2FB03239B0CBB607B6838
:10185C001B685B6823F03F017B681B68BA680A430E
:10186C005A607B681B681B6A23F03F017B685B68CE
:10187C006A4A934202D8BB68013309E0BB684FF453
:10188C00967202FB03F3694AA2FB03239B09013303
:10189C007A6812680B4313627B681B68DB6923F45C
:1018AC004F4222F0FF027B685B685C498B4219D87F
:1018BC00FB68591E7B685B685B00B1FBF3F3591C3A
:1018CC0040F6FC730B40002B0AD0FB68591E7B685A
:1018DC005B685B00B1FBF3F30133C3F30B0351E023
:1018EC0004234FE07B689B68002B11D1FB68581ECA
:1018FC007B6859680B465B000B44B0FBF3F3013378
:10190C00C3F30B03002B0CBF01230023DBB212E04B
:10191C00FB68581E7B6859680B469B000B4499006A
:10192C000B44B0FBF3F30133C3F30B03002B0CBFDD
:10193C0001230023DBB2002B01D0012322E07B68C2
:10194C009B68002B0ED1FB68581E7B6859680B46B0
:10195C005B000B44B0FBF3F30133C3F30B0343F411
:10196C0000430FE0FB68581E7B6859680B469B00D0
:10197C000B4499000B44B0FBF3F30133C3F30B039B
:10198C0043F44043796809681343CB617B681B6857
:10199C001B6823F0C0017B68DA697B681B6A1A43F9
:1019AC007B681B680A431A607B681B689B6823F47E
:1019BC00034323F0FF037A6811697A68D2681143F4
:1019CC007A6812680B4393607B681B68DB6823F0B2
:1019DC00FF017B685A697B689B691A437B681B68AB
:1019EC000A43DA607B681B681A687B681B6842F0E4
:1019FC0001021A607B6800221A647B68202283F83B
:101A0C003D207B6800221A637B68002283F83E200D
:101A1C00002318461037BD4680BD00BFA0860100CC
:101A2C007F841E00FF083D0083DE1B43D34D6210F4
:101A3C0080B483B000AF78607B681B685B6903F08F
:101A4C008003802B03D17B681B6800221A6100BFC6
:101A5C000C37BD4680BC704780B58AB002AFF860C9
:101A6C00B9603B601346FB80FFF718F9F861FB681F
:101A7C0093F83D30DBB2202B40F0FB80BB68002B91
:101A8C0002D0FB88002B01D10123F3E0FB6893F813
:101A9C003C30012B01D10223ECE0FB68012283F8DE
:101AAC003C20FB681B681B6803F00103012B07D06B
:101ABC00FB681B681A68FB681B6842F001021A601D
:101ACC00FB681B681A68FB681B6822F400621A60CA
:101ADC00FB68212283F83D20FB68202283F83E20FE
:101AEC00FB6800221A64FB68BA685A62FB68FA88C1
:101AFC005A85FB685B8D9AB2FB681A85FB685F4A56
:101B0C00DA62FB681B681A68FB681B6842F4806227
:101B1C001A60FB6900933B6800225949F86801F090
:101B2C0093FD0346002B01D00123A3E00023BB61EE
:101B3C00FB681B685B69BB61FB681B689B69BB61CD
:101B4C00BB69FB681B69B3F5404F65D1FB6900931A
:101B5C003B6800224A49F86801F076FD0346002BE9
:101B6C0001D0012386E000237B61FB681B685B6965
:101B7C007B61FB681B689B697B617B694CE0FA6944
:101B8C003968F86801F0DAFD0346002B09D0FB68D0
:101B9C001B681A68FB681B6822F480621A600123B8
:101BAC0068E0FB685B6A1A78FB681B681A61FB6863
:101BBC005B6A5A1CFB685A62FB685B8D9BB2013BEB
:101BCC009AB2FB685A85FB681B8D013B9AB2FB6885
:101BDC001A85FB681B685B6903F00403042B1BD19B
:101BEC00FB681B8D002B17D0FB685B6A1A78FB68AF
:101BFC001B681A61FB685B6A5A1CFB685A62FB68BB
:101C0C005B8D9BB2013B9AB2FB685A85FB681B8DBE
:101C1C00013B9AB2FB681A85FB681B8D002BAED179
:101C2C00FB6900933B6800224FF48231F86801F0A5
:101C3C000BFD0346002B01D001231BE0FB681B6846
:101C4C006FF480625A61FB681B681A68FB681B683A
:101C5C0022F480621A60FB68202283F83D20FB6826
:101C6C00002283F83E20FB68002283F83C200023EE
:101C7C0000E0022318462037BD4680BD0000FFFF60
:101C8C000200010080B485B000AFF860B960134663
:101C9C00FB80FB6893F83D30DBB2202B58D1BB683E
:101CAC00002B02D0FB88002B01D1012351E0FB68F3
:101CBC0093F83C30012B01D102234AE0FB6801224E
:101CCC0083F83C20FB681B681B6803F00103012BA5
:101CDC0007D0FB681B681A68FB681B6842F001029E
:101CEC001A60FB681B681A68FB681B6822F40062A8
:101CFC001A60FB68222283F83D20FB68202283F8BF
:101D0C003E20FB6800221A64FB68BA685A62FB68C2
:101D1C00FA885A85FB685B8D9AB2FB681A85FB685A
:101D2C000E4ADA62FB681B681A68FB681B6842F48F
:101D3C0080621A60FB68002283F83C20FB681B68F9
:101D4C005A68FB681B6842F4E0625A60002300E0AA
:101D5C00022318461437BD4680BC70470000FFFFB5
:101D6C0080B588B000AF78600023BB617B681B68CE
:101D7C005B687B617B68DB6A3B617B6893F83E3018
:101D8C00FB737B6893F83D30BB73FB7B102B03D04C
:101D9C00FB7B402B40F0C1807B681B689B69BB615F
:101DAC007B681B685B69FB61FB6903F00103002B1B
:101DBC000DD13B69B3F52A0F03D03B69B3F12A4F20
:101DCC0001D1012300E00023012B00F03281FB69DB
:101DDC0003F00103002B0CD07B695B0A03F00103B9
:101DEC00002B06D0786801F051FD786800F05FFD9B
:101DFC0092E0FB69DB0803F00103002B09D07B693F
:101E0C005B0A03F00103002B03D0786800F0D4FDCB
:101E1C0082E0FB695B0803F00103002B09D07B69AE
:101E2C005B0A03F00103002B03D0786800F0EDFD92
:101E3C0072E0BB699B0803F00103002B3BD07B686D
:101E4C001B685B6803F40063B3F5006F00F0F3806C
:101E5C00FB69DB0903F00103002B0FD07B699B0AA4
:101E6C0003F00103002B09D0FB699B0803F001036D
:101E7C00002B03D1786800F0CBF94DE0FB699B088F
:101E8C0003F00103002B00F0D6807B695B0A03F0A2
:101E9C000103002B00F0CF80BB7B212B03D1786892
:101EAC0000F052FAC7E0FB7B402B40F0C48078680E
:101EBC0000F0C0FABFE07B681B685B6803F400634A
:101ECC00B3F5006F00F0B780FB699B0903F00103C9
:101EDC00002B0FD07B699B0A03F00103002B09D068
:101EEC00FB699B0803F00103002B03D1786800F019
:101EFC0039FB11E0FB699B0803F00103002B00F098
:101F0C009A807B695B0A03F00103002B00F093803D
:101F1C00786800F0E2FB8EE08DE07B681B6C002B98
:101F2C0004D07B681B685B69FB6107E07B681B68FE
:101F3C009B69BB617B681B685B69FB61FB695B0828
:101F4C0003F00103002B12D07B695B0A03F0010341
:101F5C00002B0CD07B681B6C002B03D07B681B68A0
:101F6C009B69BB61B969786800F0A6FF66E0FB6904
:101F7C001B0903F00103002B09D07B695B0A03F0FA
:101F8C000103002B03D0786800F0E0FF56E0BB7B28
:101F9C00212B02D0BB7B292B25D1FB69DB0903F05C
:101FAC000103002B0FD07B699B0A03F00103002B6C
:101FBC0009D0FB699B0803F00103002B03D178685F
:101FCC0000F0BEFE39E0FB699B0803F00103002B17
:101FDC0033D07B695B0A03F00103002B2DD07868AA
:101FEC0000F0EBFE29E0FB699B0903F00103002BD9
:101FFC000FD07B699B0A03F00103002B09D0FB690E
:10200C009B0803F00103002B03D1786800F0F5FE68
:10201C0014E0FB699B0803F00103002B0ED07B69D5
:10202C005B0A03F00103002B08D0786800F023FF53
:10203C0004E000BF02E000BF00E000BF2037BD4657
:10204C0080BD80B58AB000AF78607B681B685B6927
:10205C003B627B681B685B68FB6100237B627B686F
:10206C0093F83E30FB763B6A1B0A03F00103002B0E
:10207C0016D0FB691B0A03F00103002B10D07B6AFE
:10208C0043F001037B627B681B686FF480725A61BA
:10209C007B681B681A687B681B6842F400421A60F4
:1020AC003B6A5B0A03F00103002B0ED0FB691B0A91
:1020BC0003F00103002B08D07B6A43F002037B6220
:1020CC007B681B686FF400725A613B6A9B0A03F0D1
:1020DC000103002B3FD0FB691B0A03F00103002B0B
:1020EC0039D0FB7EBB767B685B8D9BB27B617B685A
:1020FC0093F83D30FB747B681B6BFB60BB7E202B25
:10210C0012D17B69002B0FD1FB7C212B08D0FB7CDF
:10211C00292B05D0FB7C282B06D1FB68212B03D166
:10212C00786801F043F816E07B681B686FF48062F6
:10213C005A617B6A43F004037B62FB7E102B02D056
:10214C00FB7E402B07D17B681B681A687B681B6879
:10215C0042F400721A603B6ADB0A03F00103002BA5
:10216C000ED0FB691B0A03F00103002B08D07B6A1D
:10217C0043F008037B627B681B686FF400625A6152
:10218C007B6A002B08D07B681A6C7B6A1A437B68CD
:10219C001A64786801F07EF800BF2837BD4680BD10
:1021AC0080B483B000AF786000BF0C37BD4680BCF4
:1021BC00704780B483B000AF786000BF0C37BD4669
:1021CC0080BC704780B483B000AF786000BF0C3720
:1021DC00BD4680BC704780B483B000AF786000BF50
:1021EC000C37BD4680BC704780B483B000AF7860BC
:1021FC0000BF0C37BD4680BC704780B483B000AFC5
:10220C0078607B681B6C18460C37BD4680BC7047E9
:10221C0080B584B000AF78607B6893F83D30FB7379
:10222C007B6893F83E30BB737B68DB6ABB607B6872
:10223C001B8D002B50D1FB7B212B4DD1BB68082B68
:10224C001DD0BB68202B1AD0BB6813F5803F16D06D
:10225C007B681B685A687B681B6822F4E0625A60D2
:10226C007B6811221A637B68002283F83E207B680E
:10227C00202283F83D207868FFF792FF60E07B68AE
:10228C001B685A687B681B6822F4E0625A607B68A2
:10229C001B681A687B681B6842F400721A607B68C2
:1022AC0000221A637B68202283F83D207B6893F818
:1022BC003E30DBB2402B07D17B68002283F83E20F6
:1022CC007868FFF77FFF3BE07B68002283F83E20B5
:1022DC007868FFF765FF33E0FB7B212B05D0BB7BD8
:1022EC00402B2DD1FB7B222B2AD17B685B8D9BB2A3
:1022FC00002B08D17B681B685A687B681B6822F42A
:10230C0080625A601CE07B6893F83E30DBB2402B55
:10231C0003D1786800F08EF812E07B685B6A1A785B
:10232C007B681B681A617B685B6A5A1C7B685A6203
:10233C007B685B8D9BB2013B9AB27B685A85FFE749
:10234C0000BF1037BD4680BD80B584B000AF78604B
:10235C007B68DB6AFB607B6893F83D30DBB2212B3A
:10236C0064D17B685B8D9BB2002B12D07B685B6A5F
:10237C001A787B681B681A617B685B6A5A1C7B68DD
:10238C005A627B685B8D9BB2013B9AB27B685A8523
:10239C004CE0FB68082B1DD0FB68202B1AD0FB6887
:1023AC0013F5803F16D07B681B685A687B681B68E6
:1023BC0022F4E0625A607B6811221A637B68002267
:1023CC0083F83E207B68202283F83D207868FFF755
:1023DC00E7FE2BE07B681B685A687B681B6822F45D
:1023EC00E0625A607B681B681A687B681B6842F461
:1023FC0000721A607B6800221A637B68202283F8C3
:10240C003D207B6893F83E30DBB2402B07D17B68D4
:10241C00002283F83E207868FFF7D4FE06E07B6844
:10242C00002283F83E207868FFF7BAFE00BF103711
:10243C00BD4680BD80B584B000AF78607B6893F8F2
:10244C003D30FB737B681B6D002B1DD17B68DB6CF7
:10245C00012B0BD17B689B6CDAB27B681B681A6111
:10246C007B681B6D9A1C7B681A6577E07B689B6C9C
:10247C009BB21B12DAB27B681B681A617B681B6DFE
:10248C005A1C7B681A6569E07B681B6D012B0BD1AC
:10249C007B689B6CDAB27B681B681A617B681B6D6E
:1024AC005A1C7B681A6559E07B681B6D022B52D154
:1024BC00FB7B222B0DD17B681B681A687B681B6821
:1024CC0042F480721A607B681B6D5A1C7B681A651B
:1024DC0044E07B685B8D9BB2002B15D0FB7B212BE2
:1024EC0012D17B685B6A1A787B681B681A617B68FF
:1024FC005B6A5A1C7B685A627B685B8D9BB2013BA2
:10250C009AB27B685A8529E07B685B8D9BB2002B65
:10251C0024D1FB7B212B21D17B681B685A687B68FB
:10252C001B6822F4E0625A607B681B681A687B683F
:10253C001B6842F400721A607B6800221A637B6885
:10254C00202283F83D207B68002283F83E207868A7
:10255C00FFF738FE02E07868FFF76AFA00BF103721
:10256C00BD4680BD80B584B000AF78607B6893F8C1
:10257C003D30DBB2222B40F0AC807B685B8D9BB294
:10258C00FB60FB68032B21D97B681B681A697B688D
:10259C005B6AD2B21A707B685B6A5A1C7B685A629F
:1025AC007B685B8D9BB2013B9AB27B685A857B68DA
:1025BC005B8D9BB2032B40F08C807B681B685A6848
:1025CC007B681B6822F480625A6082E07B68DB6A5D
:1025DC00022B75D0FB68012B02D0FB68002B6FD14E
:1025EC00786801F0F3F80346002B42D17B681B6836
:1025FC001A687B681B6822F480621A607B681B680F
:10260C005A687B681B6822F4E0625A607B681B681E
:10261C001A697B685B6AD2B21A707B685B6A5A1C57
:10262C007B685A627B685B8D9BB2013B9AB27B687C
:10263C005A857B68202283F83D207B6893F83E30D6
:10264C00DBB2402B0AD17B68002283F83E207B68EA
:10265C0000221A637868FFF7BEFD3AE07B6800221F
:10266C0083F83E207B6812221A637868FFF7A1FD7D
:10267C002FE07B681B685A687B681B6822F4E06259
:10268C005A607B681B681A697B685B6AD2B21A70E5
:10269C007B685B6A5A1C7B685A627B685B8D9BB259
:1026AC00013B9AB27B685A857B68202283F83D20D7
:1026BC007B68002283F83E207868FDF72DFE08E049
:1026CC007B681B685A687B681B6822F480625A60BE
:1026DC00FFE700BF1037BD4680BD80B584B000AFAA
:1026EC0078607B68DB6AFB607B685B8D9BB2042B3C
:1026FC001BD17B681B685A687B681B6822F480625C
:10270C005A607B681B681A697B685B6AD2B21A7064
:10271C007B685B6A5A1C7B685A627B685B8D9BB2D8
:10272C00013B9AB27B685A85BDE07B685B8D9BB29E
:10273C00032B29D17B681B685A687B681B6822F4C1
:10274C0080625A60FB68042B0AD0FB68022B07D00E
:10275C007B681B681A687B681B6822F480621A60AD
:10276C007B681B681A697B685B6AD2B21A707B68DB
:10277C005B6A5A1C7B685A627B685B8D9BB2013B1F
:10278C009AB27B685A858EE07B685B8D9BB2022B7C
:10279C0076D1FB68012B02D0FB68102B08D17B682B
:1027AC001B681A687B681B6822F480621A6019E047
:1027BC00FB68042B02D0FB68022B08D17B681B68DA
:1027CC001A687B681B6842F480621A600AE0FB6836
:1027DC00102B07D07B681B681A687B681B6842F457
:1027EC0000721A607B681B681A697B685B6AD2B2DC
:1027FC001A707B685B6A5A1C7B685A627B685B8DBB
:10280C009BB2013B9AB27B685A857B681B681A693C
:10281C007B685B6AD2B21A707B685B6A5A1C7B68F5
:10282C005A627B685B8D9BB2013B9AB27B685A857E
:10283C007B681B685A687B681B6822F440725A607C
:10284C007B68202283F83D207B6893F83E30DBB216
:10285C00402B0AD17B68002283F83E207B68002243
:10286C001A637868FFF7B7FC1DE07B68002283F8D9
:10287C003E207B6812221A637868FFF79AFC12E0FC
:10288C007B681B681A697B685B6AD2B21A707B68BA
:10289C005B6A5A1C7B685A627B685B8D9BB2013BFE
:1028AC009AB27B685A8500BF1037BD4680BD80B494
:1028BC0083B000AF78607B6893F83E30DBB2402B7E
:1028CC0017D17B681B6D002B09D17B685B6CDBB26D
:1028DC001A467B681B6802F0FE021A6167E07B688F
:1028EC005B6CDBB243F00103DAB27B681B681A61E4
:1028FC005DE07B681B69B3F5804F33D17B6893F83F
:10290C003D30DBB2212B09D17B685B6CDBB21A4604
:10291C007B681B6802F0FE021A6108E07B685B6C46
:10292C00DBB243F00103DAB27B681B681A617B6887
:10293C005B6B002B04D07B685B6B9B6A002B08D114
:10294C007B689B6B002B32D07B689B6B9B6A002B4C
:10295C002DD07B681B685A687B681B6842F4006248
:10296C005A6024E07B681B6D002B0ED17B685B6C7E
:10297C009BB2DB11DBB203F00603DBB263F00F0397
:10298C00DAB27B681B681A6111E07B681B6D012B46
:10299C000DD17B685B6C9BB2DB11DBB203F00603E1
:1029AC00DBB263F00E03DAB27B681B681A6100BFFE
:1029BC000C37BD4680BC704780B483B000AF7860E4
:1029CC007B685B6CDAB27B681B681A617B685B6B3B
:1029DC00002B04D07B685B6B9B6A002B08D17B6857
:1029EC009B6B002B0CD07B689B6B9B6A002B07D0DE
:1029FC007B681B685A687B681B6842F400625A60EB
:102A0C0000BF0C37BD4680BC704780B491B000AF9E
:102A1C0078607B6893F83E3087F83F307B68DB6AE0
:102A2C00BB637B681B6B7B637B6893F83D30DBB2CD
:102A3C00222B40F074817B681B6D002B0FD197F813
:102A4C003F30402B0BD100233B637B681B685B69D9
:102A5C003B637B681B689B693B633B6B6BE17B68EF
:102A6C001B6D002B1DD17B681B69B3F5404F18D132
:102A7C000023FB627B681B685B69FB627B681B68DD
:102A8C009B69FB62FB6A7B681B681A687B681B6826
:102A9C0042F480721A607B681B6D5A1C7B681A6545
:102AAC0049E17B685B8D9BB2002B13D10023BB6289
:102ABC007B681B685B69BB627B681B689B69BB623C
:102ACC00BB6A7B681B681A687B681B6842F40072DF
:102ADC001A6020E17B685B8D9BB2012B40F08A80F1
:102AEC00BB6B13F5803F37D17B681B681A687B681A
:102AFC001B6822F480621A607B681B685B6803F4B5
:102B0C000063B3F5006F13D17B681B681A687B6890
:102B1C001B6822F480621A6000237B627B681B684E
:102B2C005B697B627B681B689B697B627B6AF2E0FA
:102B3C0000233B627B681B685B693B627B681B689C
:102B4C009B693B623B6A7B681B681A687B681B68E5
:102B5C0042F400721A60DEE0BB6B082B2ED0BB6B0C
:102B6C00202B2BD07B6B122B02D1BB6B012B25D1D5
:102B7C00BB6B042B0ED0BB6B022B0BD0BB6B102B87
:102B8C0008D07B681B681A687B681B6822F480621B
:102B9C001A6007E07B681B681A687B681B6842F444
:102BAC0080621A600023FB617B681B685B69FB61B8
:102BBC007B681B689B69FB61FB69ACE07B681B68ED
:102BCC001A687B681B6822F480621A600023BB6160
:102BDC007B681B685B69BB617B681B689B69BB611D
:102BEC00BB697B681B681A687B681B6842F40072BF
:102BFC001A6090E07B685B8D9BB2022B58D1BB6B4B
:102C0C00042B21D0BB6B022B1ED0BB6B102B1BD00B
:102C1C007B681B681A687B681B6842F400621A6048
:102C2C0000237B617B681B685B697B617B681B682D
:102C3C009B697B617B697B681B681A687B681B6876
:102C4C0022F480621A6012E07B681B681A687B6849
:102C5C001B6842F480621A6000233B617B681B682E
:102C6C005B693B617B681B689B693B613B697B686B
:102C7C001B685B6803F40063B3F5006F4BD1BB6B4F
:102C8C0013F5803F0BD0BB6B012B08D0BB6B082B13
:102C9C0005D0BB6B102B02D0BB6B202B3BD17B68C0
:102CAC001B685A687B681B6842F480525A6032E099
:102CBC007B681B681A687B681B6842F480621A6028
:102CCC007B681B685B6803F40063B3F5006F17D176
:102CDC00BB6B13F5803F0BD0BB6B012B08D0BB6BD0
:102CEC00082B05D0BB6B102B02D0BB6B202B07D154
:102CFC007B681B685A687B681B6842F480525A6078
:102D0C000023FB607B681B685B69FB607B681B684E
:102D1C009B69FB60FB687B6800221A650BE0002353
:102D2C00BB607B681B685B69BB607B681B689B69CD
:102D3C00BB60BB68FFE700BF4437BD4680BC704733
:102D4C0080B584B000AF78607B6893F83D30FB733E
:102D5C007B685B8D9BB2002B2BD07B685B6A1A78EF
:102D6C007B681B681A617B685B6A5A1C7B685A62B9
:102D7C007B685B8D9BB2013B9AB27B685A857B6802
:102D8C005B8D9BB2002B14D1FB7B292B11D17B6863
:102D9C001B685A687B681B6822F480625A607B68E7
:102DAC0021221A637B68282283F83D207868FDF77E
:102DBC002DFA00BF1037BD4680BD80B483B000AF84
:102DCC0078607B685B8D9BB2002B11D07B685B6A53
:102DDC001A787B681B681A617B685B6A5A1C7B6873
:102DEC005A627B685B8D9BB2013B9AB27B685A85B9
:102DFC0000BF0C37BD4680BC704780B584B000AFB7
:102E0C0078607B6893F83D30FB737B685B8D9BB27D
:102E1C00002B2CD07B681B681A697B685B6AD2B26A
:102E2C001A707B685B6A5A1C7B685A627B685B8D84
:102E3C009BB2013B9AB27B685A857B685B8D9BB2D7
:102E4C00002B14D1FB7B2A2B11D17B681B685A6891
:102E5C007B681B6822F480625A607B6822221A63AA
:102E6C007B68282283F83D207868FDF709FA00BFBB
:102E7C001037BD4680BD80B483B000AF78607B68EE
:102E8C005B8D9BB2002B12D07B681B681A697B6828
:102E9C005B6AD2B21A707B685B6A5A1C7B685A6296
:102EAC007B685B8D9BB2013B9AB27B685A8500BFF5
:102EBC000C37BD4680BC704780B584B000AF7860DD
:102ECC0039600023FB737B6893F83D30DBB203F071
:102EDC002803282B27D17B681B685A687B681B68E2
:102EEC0022F480625A603B689B0803F00103002BBC
:102EFC0001D10123FB733B68DB0903F00103002BB9
:102F0C0003D17B68DB68BB8102E07B689B69BB817A
:102F1C007B68002283F83C20BA89FB7B19467868D1
:102F2C00FDF7DAF90EE00023BB607B681B685B6978
:102F3C00BB607B681B689B69BB60BB687B680022BD
:102F4C0083F83C2000BF1037BD4680BD80B584B0EF
:102F5C0000AF78607B6893F83D30FB737B681B682F
:102F6C005A687B681B6822F4E0625A600023BB60DD
:102F7C007B681B685B69BB607B681B681A687B6835
:102F8C001B6842F001021A60BB687B681B681A68F8
:102F9C007B681B6822F480621A607B681B685B6824
:102FAC0003F40063B3F5006F72D1FB7B222B02D0CC
:102FBC00FB7B2A2B35D17B689B6B1B685B689AB2B9
:102FCC007B685A857B685B8D9BB2002B05D07B6838
:102FDC001B6C43F004027B681A647B681B685A689C
:102FEC007B681B6822F400625A607B689B6B1846F6
:102FFC00FEF704FA0346012B49D07B689B6B694AA8
:10300C005A637B689B6B1846FEF77AF80346002BD5
:10301C003DD07B689B6B5B6B7A68926B10469847D4
:10302C0035E07B685B6B1B685B689AB27B685A8582
:10303C007B685B8D9BB2002B05D07B681B6C43F0CF
:10304C0004027B681A647B681B685A687B681B687F
:10305C0022F400625A607B685B6B1846FEF7CEF96F
:10306C000346012B14D07B685B6B4E4A5A637B681A
:10307C005B6B1846FEF744F80346002B08D07B68C0
:10308C005B6B5B6B7A68526B1046984700E000BF35
:10309C007B685B8D9BB2002B3ED07B681B685B69A9
:1030AC0003F00403042B12D17B681B681A697B683C
:1030BC005B6AD2B21A707B685B6A5A1C7B685A6274
:1030CC007B685B8D9BB2013B9AB27B685A857B68AF
:1030DC001B685B6903F04003402B12D17B681B68B3
:1030EC001A697B685B6AD2B21A707B685B6A5A1C7D
:1030FC007B685A627B685B8D9BB2013B9AB27B68A2
:10310C005A857B685B8D9BB2002B05D07B681B6C52
:10311C0043F004027B681A647B681B6C002B03D0A1
:10312C00786800F0B7F839E0FB7B2A2B09D17B6873
:10313C0000221A637B68282283F83D207868FDF70B
:10314C009FF87B6893F83D30DBB2282B11D17B685C
:10315C00154ADA627B6800221A637B68202283F8A6
:10316C003D207B68002283F83E207868FDF7C2F88A
:10317C0014E07B681B6B222B02D0FB7B222B0DD126
:10318C007B6800221A637B68202283F83D207B68D1
:10319C00002283F83E207868FDF772F800BF1037E4
:1031AC00BD4680BD053500080000FFFF80B584B02A
:1031BC0000AF78607B6893F83D30FB737B68DB6A0B
:1031CC00BB60BB68082B02D0BB68202B29D1FB7BD2
:1031DC00282B26D17B682E4ADA627B681B685A68DA
:1031EC007B681B6822F4E0625A607B681B686FF492
:1031FC0080625A617B681B681A687B681B6822F4C2
:10320C0080621A607B6800221A637B68202283F834
:10321C003D207B68002283F83E207868FDF76AF831
:10322C0031E0FB7B212B29D17B68194ADA627B6860
:10323C0021221A637B68202283F83D207B680022C0
:10324C0083F83E207B681B685A687B681B6822F4F5
:10325C00E0625A607B681B686FF480625A617B681D
:10326C001B681A687B681B6822F480621A60786895
:10327C00FEF7DEFB7868FCF7C9FF04E07B681B688F
:10328C006FF480625A6100BF1037BD4680BD00BF2D
:10329C000000FFFF80B584B000AF78607B6893F8C6
:1032AC003D30FB737B6893F83E30BB73BB7B102BBC
:1032BC0002D0BB7B402B0AD1FB7B222B07D17B6836
:1032CC001B681A687B681B6822F400621A60FB7B1F
:1032DC0003F02803282B07D17B6800221A637B6834
:1032EC00282283F83D2015E07B681B685B6803F49B
:1032FC000063B3F5006F0AD0FB7B602B07D07B68B3
:10330C00202283F83D207B68002283F83E207B68D6
:10331C0000221A637B681B685B6803F40063B3F5D7
:10332C00006F62D17B681B685A687B681B6822F44B
:10333C0000625A607B685B6B93F82130DBB2012B27
:10334C0020D07B685B6B6A4A5A637B685B6B184660
:10335C00FDF7D6FE0346002B00F089807B681B68C6
:10336C001A687B681B6822F001021A607B682022B5
:10337C0083F83D207B685B6B5B6B7A68526B104605
:10338C00984774E07B689B6B594A5A637B689B6BCC
:10339C001846FDF7B5FE0346002B68D07B681B680A
:1033AC005B6903F04003402B0BD17B681B681A69E7
:1033BC007B685B6AD2B21A707B685B6A5A1C7B684A
:1033CC005A627B681B681A687B681B6822F00102D2
:1033DC001A607B68202283F83D207B689B6B5B6BBB
:1033EC007A68926B1046984741E07B6893F83D30C1
:1033FC00DBB2602B25D17B68202283F83D207B68D3
:10340C0000221A647B681B685B6903F04003402B45
:10341C000BD17B681B681A697B685B6AD2B21A7025
:10342C007B685B6A5A1C7B685A627B681B681A68EB
:10343C007B681B6822F001021A607868FEF7D4FEE4
:10344C0015E07B681B685B6903F04003402B0BD1D4
:10345C007B681B681A697B685B6AD2B21A707B68DE
:10346C005B6A5A1C7B685A627868FCF755FF7B686C
:10347C001B6CBB60BB6803F00103002B0ED1BB6857
:10348C0003F00203002B09D1BB6803F00403002BEB
:10349C0004D1BB6803F00803002B07D07B681B68C2
:1034AC005A687B681B6822F4E0625A607B6893F868
:1034BC003D30FB737B681B6C03F00403042B13D1AE
:1034CC00FB7B282B10D17B680A4ADA627B680022CE
:1034DC001A637B68202283F83D207B68002283F8E6
:1034EC003E207868FCF706FF00BF1037BD4680BD54
:1034FC00053500080000FFFF80B586B000AF78608E
:10350C000023FB607B685B6A7B617B6993F83D30D1
:10351C00FB744B4B1B68DB084A4AA2FB03231A0AB9
:10352C0013469B001344DA00D31AFB60FB68002B94
:10353C0006D17B691B6C43F020027B691A640AE09C
:10354C00FB68013BFB607B691B681B6803F4007321
:10355C00B3F5007FEAD07B695B6B002B03D07B69F2
:10356C005B6B00229A627B699B6B002B03D07B699F
:10357C009B6B00229A627B691B681A687B691B68CB
:10358C0022F480621A607B6900225A857B695B6B2E
:10359C00002B03D07B695B6B00225A637B699B6BAE
:1035AC00002B03D07B699B6B00225A637B691B68E1
:1035BC001A687B691B6822F001021A607B6993F818
:1035CC003D30DBB2602B0ED17B69202283F83D208D
:1035DC007B69002283F83E207B6900221A6478699B
:1035EC00FEF702FE27E0FB7C03F02803282B17D103
:1035FC007B691B681A687B691B6842F001021A60C0
:10360C007B691B681A687B691B6842F480621A60CC
:10361C007B6900221A637B69282283F83D2007E02E
:10362C007B69202283F83D207B69002283F83E20B1
:10363C007869FCF771FE00BF1837BD4680BD00BF2E
:10364C000000002089B5F81480B584B000AFF86094
:10365C00B9603B601346FB7148E03B68B3F1FF3F38
:10366C0044D0FDF71BFB0246BB69D31A3A689A4259
:10367C0002D33B68002B39D1BB681B0CDBB2012B8E
:10368C000DD1FB681B685B69DA43BB6813409BB2C6
:10369C00002B0CBF01230023DBB21A460CE0FB68A5
:1036AC001B689B69DA43BB6813409BB2002B0CBFB1
:1036BC0001230023DBB21A46FB799A4216D1FB6830
:1036CC0000221A63FB68202283F83D20FB6800224D
:1036DC0083F83E20FB681B6C43F02002FB681A64E5
:1036EC00FB68002283F83C20012323E0BB681B0C01
:1036FC00DBB2012B0DD1FB681B685B69DA43BB683D
:10370C0013409BB2002B0CBF01230023DBB21A46E3
:10371C000CE0FB681B689B69DA43BB6813409BB2E7
:10372C00002B0CBF01230023DBB21A46FB799A4213
:10373C0093D0002318461037BD4680BD80B584B0A9
:10374C0000AFF860B9607A6034E0F86800F070F8A7
:10375C000346002B01D0012334E0BB68B3F1FF3FDB
:10376C0028D0FDF79BFA02467B68D31ABA689A42B6
:10377C0002D3BB68002B1DD1FB681B685B6903F08F
:10378C008003802B16D0FB6800221A63FB68202272
:10379C0083F83D20FB68002283F83E20FB681B6CFD
:1037AC0043F02002FB681A64FB68002283F83C207B
:1037BC00012307E0FB681B685B6903F08003802B27
:1037CC00C3D1002318461037BD4680BD80B485B0E8
:1037DC0000AF78600023FB60134B1B68DB08134AB7
:1037EC00A2FB03231A0A13469B001344FB60FB68DD
:1037FC00013BFB60FB68002B07D17B681B6C43F023
:10380C0020027B681A64012308E07B681B681B6834
:10381C0003F40073B3F5007FE9D000231846143786
:10382C00BD4680BC704700BF0000002089B5F8146D
:10383C0080B483B000AF78607B681B685B6903F46D
:10384C008063B3F5806F1BD17B681B686FF480625B
:10385C005A617B6800221A637B68202283F83D2022
:10386C007B68002283F83E207B681B6C43F00402CB
:10387C007B681A647B68002283F83C20012300E0FB
:10388C00002318460C37BD4680BC704780B483B00B
:10389C0000AF78607B68DB6AB3F52A0F03D17B68D5
:1038AC000122DA6207E07B68DB6AB3F12A4F02D1AE
:1038BC007B680822DA6200BF0C37BD4680BC7047BB
:1038CC00F0B58BB006AF78607B68002B01D101237B
:1038DC00F1E07B6893F8A932DBB2002B06D17B6850
:1038EC00002283F8A8227868FDF746F87B6803224B
:1038FC0083F8A9227B681B68184601F0BFFF7B6820
:10390C001B683B607E686D4606F110040FCC0FC53A
:10391C0023682B60331D0ECB386801F09FFF0346E4
:10392C00002B05D07B68022283F8A9220123C2E078
:10393C007B681B680021184601F0BAFF0023FB735B
:10394C0040E0FB7B79685A1C13469B001344DB0058
:10395C000B44013301221A70FB7B79685A1C134605
:10396C009B001344DB000B44FA7B1A70FB7B7968D9
:10397C005A1C13469B001344DB000B4403330022F8
:10398C001A70FA7B796813469B001344DB000B44D6
:10399C00383300221A60FA7B796813469B00134473
:1039AC00DB000B443C3300221A60FA7B7968134627
:1039BC009B001344DB000B44403300221A60FB7B5A
:1039CC000133FB73FA7B7B685B689A42B9D30023A3
:1039DC00FB7344E0FA7B796813469B001344DB00CD
:1039EC000B4403F2691300221A70FA7B79681346B0
:1039FC009B001344DB000B4403F5B473FA7B1A7081
:103A0C00FA7B796813469B001344DB000B4403F2EA
:103A1C006B1300221A70FA7B796813469B001344CF
:103A2C00DB000B4403F5BC7300221A60FA7B796847
:103A3C0013469B001344DB000B4403F5BE730022BA
:103A4C001A60FA7B796813469B001344DB000B4425
:103A5C0003F5C07300221A60FB7B0133FB73FA7B06
:103A6C007B685B689A42B5D37B681B683B607E6859
:103A7C006D4606F110040FCC0FC523682B60331D67
:103A8C000ECB386801F020FF0346002B05D07B6875
:103A9C00022283F8A92201230DE07B68002283F81F
:103AAC0024207B68012283F8A9227B681B681846B6
:103ABC0001F02AFF002318461437BD46F0BD000064
:103ACC0080B400AF034B01221A6000BFBD4680BC1E
:103ADC00704700BF20000E4280B586B000AF786002
:103AEC007B68002B01D1012372E27B681B6803F019
:103AFC000103002B00F08780924B5B6803F00C03F2
:103B0C00042B0CD08F4B5B6803F00C03082B12D1E9
:103B1C008C4B5B6803F48033B3F5803F0BD1894B3E
:103B2C001B6803F40033002B6CD07B685B68002BA4
:103B3C0068D101234CE27B685B68B3F5803F06D10A
:103B4C00804B1B687F4A43F4803313602EE07B6804
:103B5C005B68002B0CD17B4B1B687A4A23F48033B7
:103B6C001360784B1B68774A23F4802313601DE0A5
:103B7C007B685B68B3F5A02F0CD1724B1B68714A44
:103B8C0043F4802313606F4B1B686E4A43F48033FD
:103B9C0013600BE06B4B1B686A4A23F48033136091
:103BAC00684B1B68674A23F4802313607B685B684F
:103BBC00002B13D0FDF772F8386108E0FDF76EF8B2
:103BCC0002463B69D31A642B01D9032300E25D4BF7
:103BDC001B6803F40033002BF0D014E0FDF75EF803
:103BEC00386108E0FDF75AF802463B69D31A642B9A
:103BFC0001D90323ECE1534B1B6803F40033002B76
:103C0C00F0D100E000BF7B681B6803F00203002BBF
:103C1C0063D04C4B5B6803F00C03002B0BD0494B6F
:103C2C005B6803F00C03082B1CD1464B5B6803F458
:103C3C008033002B16D1434B1B6803F00203002B7F
:103C4C0005D07B681B69012B01D00123C0E13D4BE2
:103C5C001B6823F0F8027B685B69DB00394913436E
:103C6C000B603AE07B681B69002B20D0364B01229D
:103C7C001A60FDF713F8386108E0FDF70FF80246FB
:103C8C003B69D31A022B01D90323A1E12D4B1B68ED
:103C9C0003F00203002BF0D02A4B1B6823F0F80230
:103CAC007B685B69DB00274913430B6015E0264BEF
:103CBC0000221A60FCF7F2FF386108E0FCF7EEFF17
:103CCC0002463B69D31A022B01D9032380E11D4B19
:103CDC001B6803F00203002BF0D17B681B6803F018
:103CEC000803002B3AD07B689B69002B19D0174B2B
:103CFC0001221A60FCF7D2FF386108E0FCF7CEFF16
:103D0C0002463B69D31A022B01D9032360E10D4B08
:103D1C005B6A03F00203002BF0D0012000F0CEFA16
:103D2C001CE00A4B00221A60FCF7B8FF38610FE068
:103D3C00FCF7B4FF02463B69D31A022B08D90323C4
:103D4C0046E100BF001002400000424280044242A3
:103D5C00924B5B6A03F00203002BE9D17B681B6872
:103D6C0003F00403002B00F0A6800023FB758B4BA3
:103D7C00DB6903F08053002B0DD1884BDB69874A3C
:103D8C0043F08053D361854BDB6903F08053BB60F8
:103D9C00BB680123FB75824B1B6803F48073002BFB
:103DAC0018D17F4B1B687E4A43F480731360FCF779
:103DBC0075FF386108E0FCF771FF02463B69D31AC6
:103DCC00642B01D9032303E1754B1B6803F4807347
:103DDC00002BF0D07B68DB68012B06D16F4B1B6A84
:103DEC006E4A43F0010313622DE07B68DB68002B05
:103DFC000CD16A4B1B6A694A23F001031362674BAF
:103E0C001B6A664A23F0040313621CE07B68DB68C0
:103E1C00052B0CD1614B1B6A604A43F004031362FF
:103E2C005E4B1B6A5D4A43F0010313620BE05B4B74
:103E3C001B6A5A4A23F001031362584B1B6A574AF8
:103E4C0023F0040313627B68DB68002B15D0FCF7AE
:103E5C0025FF38610AE0FCF721FF02463B69D31AC3
:103E6C0041F28832934201D90323B1E04B4B1B6AD8
:103E7C0003F00203002BEED014E0FCF70FFF3861C7
:103E8C000AE0FCF70BFF02463B69D31A41F2883279
:103E9C00934201D903239BE0404B1B6A03F00203BE
:103EAC00002BEED1FB7D012B05D13C4BDB693B4A52
:103EBC0023F08053D3617B68DB69002B00F0878093
:103ECC00364B5B6803F00C03082B61D07B68DB6915
:103EDC00022B46D1334B00221A60FCF7DFFE38610F
:103EEC0008E0FCF7DBFE02463B69D31A022B01D932
:103EFC0003236DE0294B1B6803F00073002BF0D1FA
:103F0C007B681B6AB3F5803F08D1244B5B6823F4B4
:103F1C0000327B689B68214913434B601F4B5B68E5
:103F2C0023F474127B68196A7B685B6A0B431B4928
:103F3C0013434B601B4B01221A60FCF7AFFE386138
:103F4C0008E0FCF7ABFE02463B69D31A022B01D901
:103F5C0003233DE0114B1B6803F00073002BF0D0E2
:103F6C0035E0104B00221A60FCF798FE386108E02F
:103F7C00FCF794FE02463B69D31A022B01D90323AA
:103F8C0026E0064B1B6803F00073002BF0D11EE0FB
:103F9C007B68DB69012B07D1012319E0001002407B
:103FAC0000700040600042420B4B5B68FB60FB689A
:103FBC0003F480327B681B6A9A4206D1FB6803F4D7
:103FCC0070127B685B6A9A4201D0012300E00023E7
:103FDC0018461837BD4680BD0010024080B584B02D
:103FEC0000AF786039607B68002B01D10123D0E0F1
:103FFC006A4B1B6803F007033A689A4210D9674B67
:10400C001B6823F0070265493B6813430B60634B45
:10401C001B6803F007033A689A4201D00123B8E009
:10402C007B681B6803F00203002B20D07B681B68A5
:10403C0003F00403002B05D0594B5B68584A43F43A
:10404C00E06353607B681B6803F00803002B05D00A
:10405C00534B5B68524A43F460535360504B5B685C
:10406C0023F0F0027B689B684D4913434B607B68DF
:10407C001B6803F00103002B40D07B685B68012BAD
:10408C0007D1474B1B6803F40033002B15D10123D8
:10409C007FE07B685B68022B07D1414B1B6803F008
:1040AC000073002B09D1012373E03D4B1B6803F017
:1040BC000203002B01D101236BE0394B5B6823F029
:1040CC0003027B685B68364913434B60FCF7E6FDE3
:1040DC00F8600AE0FCF7E2FD0246FB68D31A41F2F5
:1040EC008832934201D9032353E02D4B5B6803F0D4
:1040FC000C027B685B689B009A42EBD1274B1B68D8
:10410C0003F007033A689A4210D2244B1B6823F041
:10411C00070222493B6813430B60204B1B6803F0DA
:10412C0007033A689A4201D0012332E07B681B688E
:10413C0003F00403002B08D0194B5B6823F4E062F6
:10414C007B68DB68164913434B607B681B6803F084
:10415C000803002B09D0124B5B6823F460527B6878
:10416C001B69DB000E4913434B6000F021F802463B
:10417C000B4B5B681B0903F00F030A49CB5C22FA5B
:10418C0003F3094A1360094B1B681846FCF744FDFE
:10419C00002318461037BD4680BD00BF00200240EA
:1041AC0000100240AC6A000800000020040000204F
:1041BC0080B487B000AF0023FB600023BB600023FA
:1041CC007B6100237B6000233B611E4B5B68FB60C3
:1041DC00FB6803F00C03042B02D0082B03D027E060
:1041EC00194B3B6127E0FB689B0C03F00F03174A4C
:1041FC00D35C7B60FB6803F48033002B10D0114B35
:10420C005B685B0C03F00103114AD35CBB607B68F9
:10421C000D4A03FB02F2BB68B2FBF3F37B6104E0D3
:10422C007B680C4A02FB03F37B617B693B6102E018
:10423C00054B3B6100BF3B6918461C37BD4680BC33
:10424C00704700BF0010024000127A00C46A0008D8
:10425C00D46A000800093D0080B400AF024B1B6813
:10426C001846BD4680BC70470000002080B500AFEA
:10427C00FFF7F2FF0246054B5B681B0A03F00703CE
:10428C000349CB5C22FA03F3184680BD00100240B0
:10429C00BC6A000880B500AFFFF7DEFF0246054B95
:1042AC005B68DB0A03F007030349CB5C22FA03F3D8
:1042BC00184680BD00100240BC6A000880B485B06E
:1042CC0000AF78600A4B1B680A4AA2FB03235B0A07
:1042DC007A6802FB03F3FB6000BFFB685A1EFA60AE
:1042EC00002BF9D100BF00BF1437BD4680BC70470E
:1042FC0000000020D34D621080B586B000AF78600E
:10430C0000233B610023FB607B681B6803F0010307
:10431C00002B7DD00023FB754F4BDB6903F08053E2
:10432C00002B0DD14C4BDB694B4A43F08053D361CE
:10433C00494BDB6903F08053BB60BB680123FB7501
:10434C00464B1B6803F48073002B18D1434B1B683E
:10435C00424A43F480731360FCF7A0FC386108E018
:10436C00FCF79CFC02463B69D31A642B01D903234E
:10437C006DE03A4B1B6803F48073002BF0D0364B86
:10438C001B6A03F44073FB60FB68002B2ED07B6828
:10439C005B6803F44073FA689A4227D02E4B1B6A71
:1043AC0023F44073FB602E4B01221A602C4B00222D
:1043BC001A60294AFB681362FB6803F00103002BA7
:1043CC0014D0FCF76BFC38610AE0FCF767FC024682
:1043DC003B69D31A41F28832934201D9032336E068
:1043EC001D4B1B6A03F00203002BEED01A4B1B6A09
:1043FC0023F440727B685B68174913430B62FB7DA7
:10440C00012B05D1144BDB69134A23F08053D36184
:10441C007B681B6803F00203002B08D00E4B5B6813
:10442C0023F440427B689B680B4913434B607B68C9
:10443C001B6803F01003002B08D0074B5B6823F4B8
:10444C0080027B68DB68044913434B6000231846E9
:10445C001837BD4680BD00BF001002400070004000
:10446C004004424280B588B000AF786000237B6185
:10447C000023FB6100233B610023FB600023BB6135
:10448C007B68102B0AD07B68102B00F28A807B682B
:10449C00012B45D07B68022B75D082E0464B5B68C4
:1044AC00FB60454B1B6803F08073002B7BD0FB68D3
:1044BC009B0C03F00F03414AD35C3B61FB6803F494
:1044CC008033002B15D03C4B5B685B0C03F0010375
:1044DC003B4AD35C7B61FB6803F48033002B0DD02B
:1044EC00384A7B69B2FBF3F23B6902FB03F3FB61D5
:1044FC0004E03B69344A02FB03F3FB612E4B5B681F
:10450C0003F48003B3F5800F02D1FB69BB614AE071
:10451C00FB695B002D4AA2FB03235B08BB6142E0F5
:10452C00254B1B6AFB60FB6803F44073B3F5807F7B
:10453C0008D1FB6803F00203002B03D04FF40043B7
:10454C00BB611FE0FB6803F44073B3F5007F09D136
:10455C00194B5B6A03F00203002B03D049F640436E
:10456C00BB610FE0FB6803F44073B3F5407F1CD1D3
:10457C00114B1B6803F40033002B16D04FF224436D
:10458C00BB6112E011E0FFF785FE02460A4B5B6847
:10459C009B0B03F0030301335B00B2FBF3F3BB6132
:1045AC0004E000BF02E000BF00E000BFBB6918469A
:1045BC002037BD4680BD00BF00100240D86A0008FD
:1045CC00E86A000800127A0000093D00ABAAAAAA0A
:1045DC0080B584B000AF78600023FB607B68002B53
:1045EC0001D101237AE07B685B7CDBB2002B05D127
:1045FC007B6800221A747868FCF71CF97B6802222D
:10460C005A74786800F070F80346002B04D07B686D
:10461C0004225A74012361E0786800F092F8034692
:10462C00002B04D07B6804225A74012356E07B686B
:10463C001B685A687B681B6822F007025A607B680B
:10464C009B68002B05D0274B1B6B264A23F00103DC
:10465C001363244BDB6A23F460727B689B682149EB
:10466C001343CB627B685B68B3F1FF3F03D07B687D
:10467C005B68FB600EE00120FFF7F4FEF860FB685E
:10468C00002B04D17B6804225A74012326E0FB68BA
:10469C00013BFB60FB681A0C7B681B6802F00F0285
:1046AC009A607B681B68FA6892B2DA60786800F0EE
:1046BC0070F80346002B04D07B6804225A74012343
:1046CC000CE07B680022DA737B6801225A737B68EA
:1046DC0001229A737B6801225A7400231846103702
:1046EC00BD4680BD006C004080B584B000AF7860E2
:1046FC000023FB607B68002B01D101231DE07B684C
:10470C001B685A687B681B6822F008025A60FCF729
:10471C00C5FAF86009E0FCF7C1FA0246FB68D31A47
:10472C00B3F57A7F01D9032307E07B681B685B68CC
:10473C0003F00803002BEED0002318461037BD46BB
:10474C0080BD80B584B000AF78600023FB60FCF7BF
:10475C00A5FAF86009E0FCF7A1FA0246FB68D31A47
:10476C00B3F57A7F01D903230FE07B681B685B6884
:10477C0003F02003002BEED07B681B685A687B6823
:10478C001B6842F010025A60002318461037BD46D1
:10479C0080BD80B584B000AF78600023FB607B687F
:1047AC001B685A687B681B6822F010025A60FCF781
:1047BC0075FAF86009E0FCF771FA0246FB68D31A47
:1047CC00B3F57A7F01D9032307E07B681B685B682C
:1047DC0003F02003002BEED0002318461037BD4603
:1047EC0080BD80B582B000AF78607B68002B01D1B2
:1047FC00012342E07B6893F84130DBB2002B06D1F9
:10480C007B68002283F840207868FCF737F87B68D7
:10481C00242283F841207B681B68DA687B681B685C
:10482C0022F40052DA60786800F08AFF7B681B681B
:10483C001A697B681B6822F490421A617B681B68BA
:10484C005A697B681B6822F02A025A617B681B68D4
:10485C00DA687B681B6842F40052DA607B680022DD
:10486C005A647B68202283F841207B68202283F8DD
:10487C0042207B6800225A63002318460837BD4645
:10488C0080BD80B58AB002AFF860B9603B6013465A
:10489C00FB8000237B61FB6893F84130DBB2202B5B
:1048AC006DD1BB68002B02D0FB88002B01D10123FA
:1048BC0066E0FB6800225A64FB68212283F84120E1
:1048CC00FCF7ECF97861FB68FA889A84FB68FA8843
:1048DC00DA84FB689B68B3F5805F08D1FB681B69C1
:1048EC00002B04D10023FB61BB68BB6103E0BB68F8
:1048FC00FB610023BB612AE03B6800937B690022CB
:10490C008021F86800F052FC0346002B01D00323F1
:10491C0036E0FB69002B0BD1BB691B881A46FB6880
:10492C001B68C2F308025A60BB690233BB6107E023
:10493C00FB691A78FB681B685A60FB690133FB61E1
:10494C00FB68DB8C9BB2013B9AB2FB68DA84FB6898
:10495C00DB8C9BB2002BCFD13B6800937B69002290
:10496C004021F86800F022FC0346002B01D0032301
:10497C0006E0FB68202283F84120002300E002239C
:10498C0018462037BD4680BD80B58CB000AFF860AE
:10499C00B9601346FB80FB6893F84230DBB2202BE6
:1049AC004AD1BB68002B02D0FB88002B01D101231C
:1049BC0043E0FB6801221A63FB6800225A63FB8800
:1049CC001A46B968F86800F05FFC034687F82F3088
:1049DC0097F82F30002B2CD1FB681B6B012B25D1AA
:1049EC0000233B61FB681B681B683B61FB681B6811
:1049FC005B683B613B69FB681B680C33BB61BB6943
:104A0C0053E8003F7B617B6943F01003BB62FB689A
:104A1C001B680C33BA6A7A623B62396A7A6A41E87B
:104A2C000023FB61FB69002BE5D102E0012387F831
:104A3C002F3097F82F3000E0022318463037BD4650
:104A4C0080BD000080B5BAB000AF78607B681B6891
:104A5C001B68C7F8E4307B681B68DB68C7F8E0307C
:104A6C007B681B685B69C7F8DC300023C7F8D8305B
:104A7C000023C7F8D430D7F8E43003F00F03C7F89D
:104A8C00D830D7F8D830002B0FD1D7F8E43003F05A
:104A9C002003002B09D0D7F8E03003F02003002BC3
:104AAC0003D0786800F08EFD5BE2D7F8D830002B8D
:104ABC0000F0DE80D7F8DC3003F00103002B06D1C8
:104ACC00D7F8E03003F49073002B00F0D180D7F8C6
:104ADC00E43003F00103002B0BD0D7F8E03003F4E3
:104AEC008073002B05D07B685B6C43F001027B6804
:104AFC005A64D7F8E43003F00403002B0BD0D7F83A
:104B0C00DC3003F00103002B05D07B685B6C43F0B9
:104B1C0002027B685A64D7F8E43003F00203002BDE
:104B2C000BD0D7F8DC3003F00103002B05D07B68E9
:104B3C005B6C43F004027B685A64D7F8E43003F0F2
:104B4C000803002B11D0D7F8E03003F02003002B22
:104B5C0005D1D7F8DC3003F00103002B05D07B68BE
:104B6C005B6C43F008027B685A647B685B6C002BBF
:104B7C0000F0F281D7F8E43003F02003002B08D0CA
:104B8C00D7F8E03003F02003002B02D0786800F057
:104B9C0019FD7B681B685B6903F04003002B14BF95
:104BAC0001230023DBB2C7F8D4307B685B6C03F0C5
:104BBC000803002B03D1D7F8D430002B4FD07868E2
:104BCC0000F023FC7B681B685B6903F04003002B3F
:104BDC0041D07B681B681433C7F89C30D7F89C30E5
:104BEC0053E8003FC7F89830D7F8983023F04003CB
:104BFC00C7F8D0307B681B681433D7F8D020C7F8BF
:104C0C00A820C7F8A430D7F8A410D7F8A82041E8FA
:104C1C000023C7F8A030D7F8A030002BD9D17B687F
:104C2C00DB6B002B13D07B68DB6B7E4A5A637B6893
:104C3C00DB6B1846FCF764FA0346002B16D07B6836
:104C4C00DB6B5B6B7A68D26B104698470EE078682A
:104C5C0000F0A5F90AE0786800F0A1F906E07868A0
:104C6C0000F09DF97B6800225A6475E100BF73E186
:104C7C007B681B6B012B40F04F81D7F8E43003F0BD
:104C8C001003002B00F04881D7F8E03003F010033C
:104C9C00002B00F041810023BB607B681B681B6804
:104CAC00BB607B681B685B68BB60BB687B681B6810
:104CBC005B6903F04003002B00F0B6807B68DB6B74
:104CCC001B685B68A7F8BE30B7F8BE30002B00F04D
:104CDC0045817B689B8DB7F8BE209A4280F03E815F
:104CEC007B68B7F8BE20DA857B68DB6B9B69202B71
:104CFC0000F088807B681B680C33C7F88830D7F8C5
:104D0C00883053E8003FC7F88430D7F8843023F458
:104D1C008073C7F8B8307B681B680C33D7F8B820A1
:104D2C00C7F89420C7F89030D7F89010D7F8942093
:104D3C0041E80023C7F88C30D7F88C30002BD9D140
:104D4C007B681B6814337B677B6F53E8003F3B67C2
:104D5C003B6F23F00103C7F8B4307B681B68143336
:104D6C00D7F8B420C7F88020FB67F96FD7F88020FC
:104D7C0041E80023BB67BB6F002BE1D17B681B684C
:104D8C0014333B663B6E53E8003FFB65FB6D23F031
:104D9C004003C7F8B0307B681B681433D7F8B020D9
:104DAC00FA66BB66B96EFA6E41E800237B667B6ED1
:104DBC00002BE3D17B68202283F842207B68002201
:104DCC001A637B681B680C33FB64FB6C53E8003F75
:104DDC00BB64BB6C23F01003C7F8AC307B681B685A
:104DEC000C33D7F8AC20BA657B65796DBA6D41E8A8
:104DFC0000233B653B6D002BE3D17B68DB6B1846D6
:104E0C00FCF742F97B6802225A637B689A8D7B68B7
:104E1C00DB8D9BB2D31A9BB219467868FBF7CAF9A3
:104E2C009CE000BFDB5400087B689A8D7B68DB8DAF
:104E3C009BB2D31AA7F8CE307B68DB8D9BB2002BCC
:104E4C0000F08E80B7F8CE30002B00F089807B68A4
:104E5C001B680C33BB63BB6B53E8003F7B637B6B02
:104E6C0023F49073C7F8C8307B681B680C33D7F8F1
:104E7C00C8207A643B64396C7A6C41E80023FB638C
:104E8C00FB6B002BE3D17B681B6814337B627B6A62
:104E9C0053E8003F3B623B6A23F00103C7F8C43080
:104EAC007B681B681433D7F8C4203A63FB62F96A39
:104EBC003A6B41E80023BB62BB6A002BE3D17B68F1
:104ECC00202283F842207B6800221A637B681B68CF
:104EDC000C333B613B6953E8003FFB60FB6823F0FC
:104EEC001003C7F8C0307B681B680C33D7F8C020A0
:104EFC00FA61BB61B969FA6941E800237B617B699E
:104F0C00002BE3D17B6802225A63B7F8CE301946E6
:104F1C007868FBF74FF923E0D7F8E43003F080030F
:104F2C00002B09D0D7F8E03003F08003002B03D01E
:104F3C00786800F0E0FA14E0D7F8E43003F04003AE
:104F4C00002B0ED0D7F8E03003F04003002B08D034
:104F5C00786800F01FFB04E000BF02E000BF00E037
:104F6C0000BFE837BD4680BD80B483B000AF786029
:104F7C0000BF0C37BD4680BC704780B483B000AF17
:104F8C00786000BF0C37BD4680BC704780B483B0DE
:104F9C0000AF786000BF0C37BD4680BC704780B452
:104FAC0083B000AF786000BF0C37BD4680BC704743
:104FBC0080B59CB000AF78607B685B6AFB667B68F1
:104FCC001B681B6803F02003002B72D1FB6E0022C0
:104FDC00DA85FB6E1B680C33FB64FB6C53E8003FFB
:104FEC00BB64BB6C23F48073BB66FB6E1B680C3319
:104FFC00BA6EBA657B65796DBA6D41E800233B6585
:10500C003B6D002BE5D1FB6E1B681433BB63BB6B94
:10501C0053E8003F7B637B6B23F001037B66FB6EE5
:10502C001B6814337A6E7A643B64396C7A6C41E891
:10503C000023FB63FB6B002BE5D1FB6E1B68143369
:10504C007B627B6A53E8003F3B623B6A23F0400380
:10505C003B66FB6E1B6814333A6E3A63FB62F96A6B
:10506C003A6B41E80023BB62BB6A002BE5D1FB6EB7
:10507C00202283F84220FB6E1B6B012B19D1FB6E97
:10508C001B680C333B613B6953E8003FFB60FB68DA
:10509C0023F01003FB65FB6E1B680C33FA6DFA6191
:1050AC00BB61B969FA6941E800237B617B69002B1C
:1050BC00E5D1FB6E00225A63FB6E1B6B012B06D1F4
:1050CC00FB6E9B8D1946F86EFBF774F802E0F86ED8
:1050DC00FFF753FF00BF7037BD4680BD80B584B06D
:1050EC0000AF78607B685B6AFB60FB6801225A63E7
:1050FC00FB681B6B012B08D1FB689B8D5B089BB27B
:10510C001946F868FBF756F802E0F868FFF73EFF1F
:10511C0000BF1037BD4680BD80B584B000AF78604D
:10512C000023FB607B685B6ABB60BB681B685B69C8
:10513C0003F08003002B14BF01230023DBB2FB60C0
:10514C00BB6893F84130DBB2212B08D1FB68002BF4
:10515C0005D0BB680022DA84B86800F02FF9BB6870
:10516C001B685B6903F04003002B14BF0123002371
:10517C00DBB2FB60BB6893F84230DBB2222B08D168
:10518C00FB68002B05D0BB680022DA85B86800F0FC
:10519C003CF9BB685B6C43F01002BB685A64B8689E
:1051AC00FFF7FDFE00BF1037BD4680BD80B590B047
:1051BC0000AFF860B9603B601346FB7150E0BB6C0C
:1051CC00B3F1FF3F4CD0BB6C002B07D0FBF766FD57
:1051DC0002463B68D31ABA6C9A4241D2FB681B68F0
:1051EC000C33BB62BB6A53E8003F7B627B6A23F4DF
:1051FC00D073FB63FB681B680C33FA6B7A633B63FD
:10520C00396B7A6B41E80023FB62FB6A002BE5D11A
:10521C00FB681B6814337B617B6953E8003F3B617F
:10522C003B6923F00103BB63FB681B681433BA6B47
:10523C003A62FB61F9693A6A41E80023BB61BB69D8
:10524C00002BE5D1FB68202283F84120FB6820224B
:10525C0083F84220FB68002283F8402003230FE0F0
:10526C00FB681B681A68BB681340BA689A420CBF8B
:10527C0001230023DBB21A46FB799A429FD000230C
:10528C0018464037BD4680BD80B598B000AFF86079
:10529C00B9601346FB80BA68FB689A62FB68FA88AF
:1052AC009A85FB6800225A64FB68222283F842200C
:1052BC00FB68DB6B3E4A9A62FB68DB6B3D4ADA6249
:1052CC00FB68DB6B3C4A1A63FB68DB6B00225A639E
:1052DC0007F10803FB65FB68D86BFB681B6804339C
:1052EC001946FB6D1A68FB88FBF76EFE00233B61C9
:1052FC00FB681B681B683B61FB681B685B683B6158
:10530C003B69FB681B69002B19D0FB681B680C33CD
:10531C003B643B6C53E8003FFB63FB6B43F48073D3
:10532C00BB65FB681B680C33BA6DFA64BB64B96C63
:10533C00FA6C41E800237B647B6C002BE5D1FB68A5
:10534C001B681433FB62FB6A53E8003FBB62BB6A09
:10535C0043F001037B65FB681B6814337A6DBA63F9
:10536C007B63796BBA6B41E800233B633B6B002B8F
:10537C00E5D1FB681B681433BB61BB6953E8003F84
:10538C007B617B6943F040033B65FB681B6814330E
:10539C003A6D7A623B62396A7A6A41E80023FB61B2
:1053AC00FB69002BE5D1002318466037BD4680BD54
:1053BC00BD4F0008E95000082551000880B489B0A1
:1053CC0000AF78607B681B680C33FB60FB6853E8AC
:1053DC00003FBB60BB6823F0C003FB617B681B68AC
:1053EC000C33FA69BA617B617969BA6941E80023C7
:1053FC003B613B69002BE5D17B68202283F841207F
:10540C0000BF2437BD4680BC704780B495B000AF58
:10541C0078607B681B680C337B637B6B53E8003FC5
:10542C003B633B6B23F49073FB647B681B680C330E
:10543C00FA6C3A64FB63F96B3A6C41E80023BB638A
:10544C00BB6B002BE5D17B681B6814333B623B6A5A
:10545C0053E8003FFB61FB6923F00103BB647B68ED
:10546C001B681433BA6CFA62BB62B96AFA6A41E817
:10547C0000237B627B6A002BE5D17B681B6B012BC5
:10548C0019D17B681B680C33FB60FB6853E8003F49
:10549C00BB60BB6823F010037B647B681B680C3318
:1054AC007A6CBA617B617969BA6941E800233B6126
:1054BC003B69002BE5D17B68202283F842207B6876
:1054CC0000221A6300BF5437BD4680BC704780B5BC
:1054DC0084B000AF78607B685B6AFB60FB6800227D
:1054EC00DA85FB680022DA84F868FFF758FD00BF04
:1054FC001037BD4680BD80B485B000AF78607B6846
:10550C0093F84130DBB2212B3ED17B689B68B3F51D
:10551C00805F14D17B681B69002B10D17B681B6AE0
:10552C00FB60FB681B881A467B681B68C2F3080289
:10553C005A607B681B6A9A1C7B681A6208E07B685D
:10554C001B6A591C7A6811621A787B681B685A604E
:10555C007B68DB8C9BB2013B9BB27A681946D18489
:10556C00002B0FD17B681B68DA687B681B6822F004
:10557C008002DA607B681B68DA687B681B6842F023
:10558C004002DA60002300E0022318461437BD46BF
:10559C0080BC704780B582B000AF78607B681B68B8
:1055AC00DA687B681B6822F04002DA607B68202294
:1055BC0083F841207868FFF7D7FC0023184608379A
:1055CC00BD4680BD80B58CB000AF78607B6893F829
:1055DC004230DBB2222B40F0AE807B689B68B3F587
:1055EC00805F17D17B681B69002B13D10023FB62F2
:1055FC007B689B6ABB627B681B685B689BB2C3F36E
:10560C0008039AB2BB6A1A807B689B6A9A1C7B68F7
:10561C009A6226E07B689B6AFB620023BB627B6814
:10562C009B68B3F5805F07D07B689B68002B0AD121
:10563C007B681B69002B06D17B681B685B68DAB240
:10564C00FB6A1A7008E07B681B685B68DBB203F0CE
:10565C007F03DAB2FB6A1A707B689B6A5A1C7B6800
:10566C009A627B68DB8D9BB2013B9BB27A681946D0
:10567C00D185002B5DD17B681B68DA687B681B6861
:10568C0022F02002DA607B681B68DA687B681B6892
:10569C0022F48072DA607B681B685A697B681B682D
:1056AC0022F001025A617B68202283F842207B6839
:1056BC0000225A637B681B6B012B35D17B6800225F
:1056CC001A637B681B680C337B617B6953E8003F72
:1056DC003B613B6923F010037B627B681B680C33D6
:1056EC007A6A3A62FB61F9693A6A41E80023BB6164
:1056FC00BB69002BE5D17B681B681B6803F01003AA
:10570C00102B0AD10023FB607B681B681B68FB60B5
:10571C007B681B685B68FB60FB687B689B8D19462C
:10572C007868FAF747FD02E07868FFF726FC00235B
:10573C0002E0002300E0022318463037BD4680BD4E
:10574C0080B584B000AF78607B681B681B6923F45C
:10575C0040517B68DA687B681B680A431A617B6876
:10576C009A687B681B691A437B685B691343BB604F
:10577C007B681B68DB6823F4B05323F00C037A6856
:10578C001268B9680B43D3607B681B685B6923F4B0
:10579C0040717B689A697B681B680A435A617B6815
:1057AC001B682C4A934203D1FEF774FDF86002E0AB
:1057BC00FEF75CFDF860FA6813469B0013449A00F0
:1057CC001A447B685B689B00B2FBF3F3224AA2FB92
:1057DC0003235B091901FA6813469B0013449A00D2
:1057EC001A447B685B689B00B2FBF3F21A4BA3FB79
:1057FC0002035B09642000FB03F3D31A1B01323351
:10580C00154AA2FB03235B0903F0F0031944FA6861
:10581C0013469B0013449A001A447B685B689B00F8
:10582C00B2FBF3F20C4BA3FB02035B09642000FBFD
:10583C0003F3D31A1B013233074AA2FB03235B0980
:10584C0003F00F027B681B680A449A6000BF103794
:10585C00BD4680BD003801401F85EB5184B080B43B
:10586C0083B000AF786007F1140080E80E000023CD
:10587C0018460C37BD4680BC04B0704780B485B068
:10588C0000AF78604FF43F43FB607B68B3F8403067
:10589C009AB2FB689BB2DB439BB213409AB27B6813
:1058AC00A3F84020002318461437BD4680BC70472F
:1058BC0080B483B000AF78600B46FB7000231846B1
:1058CC000C37BD4680BC704784B080B483B000AF49
:1058DC00786007F1140080E80E007B680122A3F8C1
:1058EC0040207B680022A3F840207B680022A3F8AC
:1058FC0044207B680022A3F85020002318460C3764
:10590C00BD4680BC04B0704780B483B000AF7860F3
:10591C00002318460C37BD4680BC7047014B1868F5
:10592C00704700BF0C00002070B500260C4D0D4CCC
:10593C00641BA410A64209D101F034F800260A4DCC
:10594C000A4C641BA410A64205D170BD55F8043B4B
:10595C0098470136EEE755F8043B98470136F2E7D5
:10596C00846B0008846B0008846B0008886B00084B
:10597C0003460244934200D1704703F8011BF9E738
:10598C000FB40A4B13B51C6824B1A36913B9204694
:10599C0000F062FA05AB2046049AA168019300F06E
:1059AC0065FC02B0BDE8104004B070470C0000204C
:1059BC0070B50E46054618B183690BB900F04CFA68
:1059CC00AB69AC6813B9284600F046FA2C4B9C42E4
:1059DC0020D16C68636EDB0705D4A389980502D4CB
:1059EC00A06D00F0D7FAA38919071DD52369DBB187
:1059FC00013EA36816F8011F013BA36039BB002BC5
:105A0C0038DA22460A21284600F050F8013011D02D
:105A1C000A2511E01B4B9C4201D1AC68DAE71A4B0A
:105A2C009C4208BFEC68D5E72146284600F090F868
:105A3C000028DDD04FF0FF35636EDA0705D4A3895B
:105A4C009B0502D4A06D00F0A6FA284670BD002B71
:105A5C0004DAA2699A4206DC0A2904D023685A1C8B
:105A6C0022601970C5E72246284600F01FF8013065
:105A7C00BFD1DFE70A2523685A1C22601D70DBE7C3
:105A8C00106B0008306B0008F06A0008024B0146EE
:105A9C001868FFF78DBF00BF0C000020034611F8FB
:105AAC00012B03F8012B002AF9D17047F8B50E46EB
:105ABC001446054618B183690BB900F0CDF9214B9A
:105ACC009C422BD16C68A369A360A3891A072FD5BC
